:020000040000FA
:100000000C9462000C948A000C948A000C948A0070
:100010000C948A000C948A000C948A000C94820937
:100020000C948A000C948A000C948A000C94C608E4
:100030000C948A000C948A000C948A000C948A0018
:100040000C9424080C948A000C9494080C946E0868
:100050000C948A000C948A000C948A000C948A00F8
:100060000C948A000C948A00000000080002010031
:100070000003040700000000000000000000000072
:10008000240027002A000000000023002600290089
:1000900000000000250028002B00040404040404D0
:1000A0000404020202020202030303030303010227
:1000B00004081020408001020408102001020408F6
:1000C0001020BF0911241FBECFEFD8E0DEBFCDBF87
:1000D00011E0A0E0B1E0E0E5F8E102C005900D928A
:1000E000A43AB107D9F722E0A4EAB1E001C01D9219
:1000F000AE39B207E1F710E0C2E6D0E004C02197C4
:10010000FE010E94200CC136D107C9F70E94EA0AFD
:100110000C94260C0C940000833081F028F481307C
:1001200099F08230A9F008958730A9F08830C9F09D
:100130008430B1F4809180008F7D03C08091800075
:100140008F7780938000089584B58F7784BD08955C
:1001500084B58F7DFBCF8091B0008F778093B00006
:1001600008958091B0008F7DF9CFCF93DF93282F32
:1001700030E0F901E859FF4F8491F901E255FF4F52
:10018000D491F901E656FF4FC491CC23A1F081111F
:100190000E948C00EC2FF0E0EE0FFF1FEA57FF4F9C
:1001A000A591B491EC91ED2381E090E009F480E019
:1001B000DF91CF91089580E090E0FACF1F93CF9325
:1001C000DF93282F30E0F901E859FF4F8491F901BE
:1001D000E255FF4FD491F901E656FF4FC491CC236D
:1001E000A9F0162F81110E948C00EC2FF0E0EE0F89
:1001F000FF1FE057FF4FA591B4918FB7F894EC9192
:10020000111108C0D095DE23DC938FBFDF91CF9111
:100210001F910895DE2BF8CFCF93DF9360E08CE041
:100220000E94DE0060E088E00E94DE00C7E0D0E0CF
:1002300060E084E00E94DE008091560290E00C2E87
:1002400002C0959587950A94E2F761E080FF60E02F
:1002500088E00E94DE0061E084E00E94DE002197D9
:1002600038F761E08CE0DF91CF910C94DE00CF9302
:10027000DF9390E0FC01E255FF4F249186569F4F9B
:10028000FC0184918823C9F090E0880F991FFC013C
:10029000E458FF4FA591B491FC01E057FF4FC59181
:1002A000D49161110DC09FB7F8948C912095822351
:1002B0008C938881282328839FBFDF91CF91089555
:1002C000623051F49FB7F8943C91822F809583233C
:1002D0008C93E8812E2BEFCF8FB7F894EC912E2BD7
:1002E0002C938FBFEACF3FB7F8948091B5019091DE
:1002F000B601A091B701B091B80126B5A89B05C081
:100300002F3F19F00196A11DB11D3FBFBA2FA92F94
:10031000982F8827BC01CD01620F711D811D911D91
:1003200042E0660F771F881F991F4A95D1F70895FD
:100330008F929F92AF92BF92CF92DF92EF92FF92F5
:100340004B015C010E9473016B017C010E947301EF
:100350006C197D098E099F09683E734081059105DE
:10036000A8F321E0821A9108A108B10888EEC80E0E
:1003700083E0D81EE11CF11C81149104A104B10496
:1003800029F7FF90EF90DF90CF90BF90AF909F90B4
:100390008F900895AF92BF92CF92DF92EF92FF922B
:1003A0000F931F93CF93DF936C017B018B01040F9D
:1003B000151FEB015E01AE18BF08C017D10759F039
:1003C0006991D601ED91FC910190F081E02DC6017B
:1003D0000995892B79F7C501DF91CF911F910F9175
:1003E000FF90EF90DF90CF90BF90AF900895FC0109
:1003F000538D448D252F30E0842F90E0821B930B8A
:10040000541710F0CF96089501970895FC01918D2F
:10041000828D981761F0A28DAE0FBF2FB11D5D9632
:100420008C91928D9F5F9F73928F90E008958FEFD4
:100430009FEF0895FC01918D828D981731F0828D88
:10044000E80FF11D858D90E008958FEF9FEF0895DF
:10045000FC01918D228D892F90E0805C9F4F821B43
:1004600091098F739927089589EB91E00E942802E2
:1004700021E0892B09F420E0822F089580E090E0AC
:10048000892B29F00E94340281110C9400000895F8
:10049000FC01A48DA80FB92FB11DA35ABF4F2C91F9
:1004A000848D90E001968F739927848FA689B789F0
:1004B0002C93A089B1898C91837080648C93938DE7
:1004C000848D981306C00288F389E02D80818F7D8A
:1004D00080830895EF92FF920F931F93CF93DF9342
:1004E000EC0181E0888F9B8D8C8D98131AC0E88970
:1004F000F989808185FF15C09FB7F894EE89FF893F
:100500006083E889F98980818370806480839FBFDC
:1005100081E090E0DF91CF911F910F91FF90EF90DC
:100520000895F62E0B8D10E00F5F1F4F0F731127EC
:10053000E02E8C8D8E110CC00FB607FCFACFE88927
:10054000F989808185FFF5CFCE010E944802F1CF65
:10055000EB8DEC0FFD2FF11DE35AFF4FF0829FB79B
:10056000F8940B8FEA89FB8980818062CFCFCF938B
:10057000DF93EC01888D8823B9F0AA89BB89E889CB
:10058000F9898C9185FD03C0808186FD0DC00FB671
:1005900007FCF7CF8C9185FFF2CF808185FFEDCFEF
:1005A000CE010E944802E9CFDF91CF910895FC016E
:1005B0008081823061F018F4813031F00895833009
:1005C00049F0843049F008956093B3000895609332
:1005D000B400089567BD089568BD0895FC01808149
:1005E000823069F028F423E092E0813051F00895E0
:1005F000833011F126E090E0843019F0089524E072
:1006000091E06230E1F0643079F1613009F03FC08F
:1006100041E050E0BA0101C0660F9A95EAF7809177
:100620005602862B01C0440F2A95EAF740954823CD
:10063000409356020C940C0127E095E0E2CF41E094
:1006400050E0BA0102C0660F771F9A95E2F7CB011E
:10065000809590915602892301C0440F2A95EAF7AC
:10066000842B80935602E6CF41E050E0FA0102C0AD
:10067000EE0FFF1F9A95E2F7CF0101C0440F2A95B4
:10068000EAF7842B8095909156028923EACF08954A
:100690008F929F92AF92BF92FF920F931F93CF932F
:1006A000DF93FC01F0808BE08F1508F44AC0828153
:1006B00008E512E0081B110987FD1395000F111FB3
:1006C000000F111F8181C8E8D0E0C81BD10987FD48
:1006D000D395CC0FDD1FCC0FDD1F4E010D2E000C6E
:1006E000AA08BB089801012E000C440B550B2819D1
:1006F00039094A095B09DB010E94DB0B24EB30E07E
:1007000040E050E00E94B10B820E931EA41EB51E65
:100710008C169D062CF0E801801691060CF4E4017D
:100720002297CC0FDD1F2FB7F8948F2D90E0FC019E
:10073000EE0FFF1FE80FF91FE85AFD4FD283C18368
:100740002FBFDF91CF911F910F91FF90BF90AF907E
:100750009F908F9008951F93CF93DF93EC01162FF6
:1007600088818C3008F04EC061E0812F0E943701F3
:100770008881282F30E0F901EE0FFF1FE20FF31FF1
:10078000E85AFD4F1F736081607C612B6083198282
:100790001A822CE0622F0E94140C829FB001112457
:1007A00030E020E0AB01420F531FFA01EE0FFF1FB4
:1007B000E40FF51FE85AFD4F908196FD16C02F5F9C
:1007C0003F4F2C30310571F781110FC0109280001E
:1007D00082E0809381001092850010928400B19A8B
:1007E00080916F00826080936F00E8818E2F90E08F
:1007F000FC01EE0FFF1FE80FF91FE85AFD4F808143
:10080000806480838881DF91CF911F91089561E09A
:1008100083E892E00E94EE0261E081E892E00E94AB
:10082000EE0261E08FE792E00E94EE0261E08DE768
:1008300092E00C94EE0262E083E892E00E94EE0205
:1008400062E081E892E00E94EE0261E08FE792E0D0
:100850000E94EE0261E08DE792E00C94EE0261E00E
:1008600083E892E00E94EE0261E081E892E00E945B
:10087000EE0262E08FE792E00E94EE0262E08DE716
:1008800092E00C94EE02CF93DF9370E060E088E991
:1008900092E00E9448036FE070E080E090E00E94E8
:1008A0009801D0E0C0E02196BE0188E992E00E9464
:1008B00048036FE070E080E090E00E949801CD3244
:1008C000D10589F762E370E080E090E0DF91CF919D
:1008D0000C9498010F931F9362E370E080E090E026
:1008E0000E949801E0918F02F09190028081909196
:1008F0008902892B8083E0918B02F0918C028081A8
:1009000090918902892B80838BE290E00197F1F727
:10091000E0918B02F0918C02908180918902809508
:100920008923808380919702882351F0E0918F0280
:10093000F091900290818091890280958923808333
:10094000E0918D02F0918E02808190918A0289233C
:1009500099F090E080E0BC0190E080E029E330E095
:1009600040E050E00E94E30BC901009711F482E3DC
:1009700090E01F910F9108950E947301AB01BC019B
:100980008091910290919202B0E0A0E08855994E3A
:10099000AF4FBF4F840F951FA61FB71F80939302C1
:1009A00090939402A0939502B0939602E0918D02E9
:1009B000F0918E02808190918A02892381F40E94B5
:1009C000730100919302109194022091950230914D
:1009D0009602061717072807390740F7BACF0E9473
:1009E00073012091910230919202620F731F811D59
:1009F000911D60939302709394028093950290935B
:100A00009602E0918D02F0918E02808190918A028F
:100A1000892381F00E947301009193021091940246
:100A2000209195023091960206171707280739077B
:100A300040F78FCF0E947301209191023091920272
:100A4000A901455051092091930230919402FA0175
:100A5000E21BF30BCF01860F971F7DCFFC010190A6
:100A60000020E9F73197AF01481B590BBC0189EB16
:100A700091E00C94CA01CF93DF930E942E05EC0104
:100A800083E191E00E942E058C0F9D1FDF91CF9195
:100A9000089564E083E892E00E94EE0264E081E859
:100AA00092E00E94EE0264E08FE792E00E94EE0284
:100AB00064E08DE792E00E94EE0289E291E00C94FE
:100AC0003B058F929F92AF92BF92CF92DF92EF92AF
:100AD000FF920F931F93CF93DF93CDB7DEB7A1970C
:100AE0000FB6F894DEBF0FBECDBF6C01990FEE08B4
:100AF000FF08F7FE47C06DE289EB91E00E946A02B1
:100B00008C0122273327A9012C193D094E095F09C1
:100B100019A2CE0181967C019AE0892E912CA12CFC
:100B2000B12CCA01B901A50194010E94E30B605DDB
:100B3000F70162937F01211531054105510589F7C0
:100B400090E080E0309719F0CF010E942E05080F49
:100B5000191F83E191E00E942E05800F911FA1963D
:100B60000FB6F894DEBF0FBECDBFDF91CF911F91BE
:100B70000F91FF90EF90DF90CF90BF90AF909F903C
:100B80008F900895A701960119A28E010F5D1F4F46
:100B90008AE0C82ED12CE12CF12CCA01B901A701A1
:100BA00096010E94E30B605DF80162938F012115AD
:100BB00031054105510589F7309729F0CF010E9491
:100BC0002E058C01C6CF10E000E0C3CF0F931F931A
:100BD000CF93DF938EE00E94B5008C018FE00E94DE
:100BE000B500EC010115110509F0DBC0009709F013
:100BF000E7C00E9407048091AD019091AE01892B5E
:100C000009F03DC10E946A0445970CF02EC10E9474
:100C1000490586E191E00E943B0566E970E08BE9B9
:100C200092E00E94480364EF71E080E090E00E944F
:100C300098010E946A049093AA018093A9016AE531
:100C400070E08BE992E00E94480381E391E00E940A
:100C50002E058091A9019091AA010E9461056EE183
:100C600070E08BE992E00E94480364EF71E080E05D
:100C700090E00E9498010E946A049093AC018093D6
:100C8000AB016AE570E08BE992E00E94480388E3DB
:100C900091E00E942E058091AB019091AC010E94E1
:100CA000610564E670E080E090E00E94980162E0F7
:100CB00083E892E00E94EE0262E081E892E00E9406
:100CC000EE0262E08FE792E00E94EE0262E08DE7C2
:100CD00092E00E94EE0280E491E00E943B056CE20B
:100CE00071E080E090E00E9498010E94490564EF65
:100CF00071E080E090E00E9498010E9449052091F7
:100D0000AB013091AC018091A9019091AA012233ED
:100D100031050CF09EC0823391050CF09AC08BE433
:100D200091E00E943B0564E683E892E00E94D702CE
:100D300064E681E892E00E94D70264E68FE792E0E1
:100D40000E94D70264E68DE792E00E94D70262E03B
:100D500083E892E00E94EE0262E081E892E00E9465
:100D6000EE0261E08FE792E00E94EE0261E08DE723
:100D700092E00E94EE0260EB74E080E090E00E945E
:100D800098010E94490585E691E00E943B0564E6D2
:100D900070E080E090E0DF91CF911F910F910C9473
:100DA00098010130110509F026CF009779F40E94CF
:100DB0002F0468EC70E080E090E00E94980119CF69
:100DC000019709F018CF0E941B04F3CF019709F097
:100DD00012CF0E9449058091AD019091AE0102971A
:100DE00009F44DC00E9443046AE583E892E00E9442
:100DF000D7026AE581E892E00E94D7026AE58FE7B0
:100E000092E00E94D7026AE58DE792E00E94D70245
:100E100062E083E892E00E94EE0262E081E892E004
:100E20000E94EE0262E08FE792E00E94EE0262E032
:100E30008DE792E00E94EE0268E572E080E090E0CB
:100E40000E9498010E944905D093AE01C093AD0164
:100E5000D2CE2817390734F081E08093A8010E9490
:100E6000DD0795CF1092A801FACF84E791E00E94A8
:100E70003B05DF91CF911F910F910C940704DF91F7
:100E8000CF911F910F910895CF93DF9382E00E943D
:100E9000B500892B69F481E0809300011092AE01C6
:100EA0001092AD0164E670E080E090E00E9498014D
:100EB0008091AD019091AE01019731F480E891E00D
:100EC000DF91CF910C943B050E94E6058091AD0126
:100ED0009091AE01892B09F069C0809100018823AF
:100EE00009F464C083E10E94B500892B09F061C058
:100EF0000E9449050E94430465E583E892E00E9450
:100F0000D70265E581E892E00E94D70265E58FE7A8
:100F100092E00E94D70265E58DE792E00E94D70239
:100F200061E083E892E00E94EE0261E081E892E0F5
:100F30000E94EE0261E08FE792E00E94EE0261E023
:100F40008DE792E00E94EE0268E572E080E090E0BA
:100F50000E9498010E9449056DE270E088E992E0E4
:100F60000E9448036FE070E080E090E00E949801EA
:100F7000CDE2D0E02197BE0188E992E00E944803CB
:100F80006FE070E080E090E00E949801209791F778
:100F900062E370E080E090E00E94980168EE73E008
:100FA00080E090E00E94980110920001DF91CF91C3
:100FB0000895DF91CF910C94E6058091A8018111ED
:100FC00025C08FE891E00E943B050E942F0462EC4F
:100FD00071E080E090E00E9498010E94070468EEB2
:100FE00073E080E090E00E9498010E941B0464EF8F
:100FF00071E080E090E00E9498018FE00E94B500CF
:10100000019711F40C9444070C9407048AE991E0C9
:101010000E943B050E941B0462EC71E080E090E0BE
:101020000E9498010E94070468EE73E080E090E05F
:101030000E9498010E942F0464EF71E080E090E02C
:101040000E9498018EE0DACF1F920F920FB60F9296
:1010500011242F933F938F939F93AF93BF938091CE
:10106000B1019091B201A091B301B091B40130915E
:10107000B00123E0230F2D3758F50196A11DB11DB6
:101080002093B0018093B1019093B201A093B3017A
:10109000B093B4018091B5019091B601A091B701D0
:1010A000B091B8010196A11DB11D8093B501909337
:1010B000B601A093B701B093B801BF91AF919F91D2
:1010C0008F913F912F910F900FBE0F901F90189509
:1010D00026E8230F0296A11DB11DD2CF1F920F92B9
:1010E0000FB60F9211242F933F934F935F936F93FB
:1010F0007F938F939F93AF93BF93EF93FF9389EB6E
:1011000091E00E944802FF91EF91BF91AF919F91B2
:101110008F917F916F915F914F913F912F910F90A0
:101120000FBE0F901F9018951F920F920FB60F923F
:1011300011242F938F939F93EF93FF93E091C90115
:10114000F091CA018081E091CF01F091D00182FD40
:101150001BC090818091D2018F5F8F732091D3014A
:10116000821741F0E091D201F0E0E754FE4F958FF5
:101170008093D201FF91EF919F918F912F910F90CA
:101180000FBE0F901F9018958081F4CF1F920F9281
:101190000FB60F9211242F933F934F935F936F934A
:1011A0007F938F939F93AF93BF93CF93DF93EF93EF
:1011B000FF938091AF01C0917C02D0E087FF24C0F3
:1011C00010928500109284008091AF018F5F809310
:1011D000AF018091AF01082E000C990B8C179D0771
:1011E00024F48091AF018C30C4F1809184009091FF
:1011F0008500049680349C4908F47AC0809184006C
:1012000090918500049676C08091AF01082E000C65
:10121000990B8C179D07C4F6E091AF018E2FEE0F4E
:10122000990BFC01EE0FFF1FE80FF91FE85AFD4F65
:10123000808186FFC9CFE091AF018E2FEE0F990B11
:10124000FC01EE0FFF1FE80FF91FE85AFD4F8081E8
:1012500060E08F730E94DE00B7CF20918400309150
:101260008500E091AF018E2FEE0F990BFC01EE0F80
:10127000FF1FE80FF91FE85AFD4F81819281820F0D
:10128000931F9093890080938800E091AF018E2F87
:10129000EE0F990BFC01EE0FFF1FE80FF91FE85A44
:1012A000FD4F808186FF11C0E091AF018E2FEE0FC0
:1012B000990BFC01EE0FFF1FE80FF91FE85AFD4FD5
:1012C000808161E08F730E94DE00FF91EF91DF91DA
:1012D000CF91BF91AF919F918F917F916F915F91CE
:1012E0004F913F912F910F900FBE0F901F90189527
:1012F00080E49CE990938900809388008FEF80932D
:10130000AF01E3CF1F920F920FB60F9211242F93CC
:101310003F934F935F936F937F938F939F93AF937D
:10132000BF93EF93FF93F0E0E0E00995FF91EF9119
:10133000BF91AF919F918F917F916F915F914F91ED
:101340003F912F910F900FBE0F901F90189561E065
:101350008CE00E94370161E087E00E94370161E084
:1013600088E00E94370161E084E00E94370110921A
:1013700056020E940C0160E087E00C94DE00CF93DF
:10138000DF931092BC011092BB0188EE93E0A0E0C5
:10139000B0E08093BD019093BE01A093BF01B093D4
:1013A000C00185E091E09093BA018093B90185EC8A
:1013B00090E09093C6018093C50184EC90E09093F7
:1013C000C8018093C70180EC90E09093CA0180939C
:1013D000C90181EC90E09093CC018093CB0182EC29
:1013E00090E09093CE018093CD0186EC90E09093B5
:1013F000D0018093CF011092D2011092D3011092AC
:10140000D4011092D5011092570280917C028C3049
:1014100008F0D8C091E0980F90937C0280939B02D3
:1014200090E0FC01EE0FFF1FE80FF91FE85AFD4F97
:1014300088EB9BE09283818380917C028C3008F062
:10144000C5C091E0980F90937C028093980290E041
:10145000FC01EE0FFF1FE80FF91FE85AFD4F88EB64
:101460009BE092838183EEEBF0E02491209389024C
:10147000EFEBF0E0E491E0938A028AEA90E0FC016D
:101480003491E32FF0E0EE0FFF1FE057FF4F45913F
:10149000549150938C0240938B02EBEAF0E0E4917C
:1014A000F0E0EE0FFF1FEA57FF4F45915491509324
:1014B0008E0240938D02FC018491E82FF0E0EE0F44
:1014C000FF1FE458FF4FA591B491B0939002A093F1
:1014D0008F02109297028BE59BE09093920280938B
:1014E0009102EC912E2B2C93E0918B02F0918C02C7
:1014F00090818091890280958923808381E0809307
:101500008302C4E0C09384020E94A709809156021E
:10151000837F809356020E940C018091B000836803
:101520008093B000C093B1001092B30061E08BE0F3
:101530000E94370182E080938102C09382020E9460
:10154000A709809156028D7E809356020E940C015D
:101550008091B00083628093B000C093B10010927C
:10156000B40061E083E00E943701D3E0D0937F02B2
:10157000D09380020E94A709809156028F758093B4
:1015800056020E940C0184B5836884BD17BC61E0DB
:1015900086E00E943701C0937D02D0937E020E94B4
:1015A000A709809156028E7B809356020E940C01FF
:1015B00084B5836284BD18BC61E085E0DF91CF9182
:1015C0000C9437018FEF80939B0236CF8FEF80937F
:1015D000980249CF789484B5826084BD84B58160D7
:1015E00084BD85B5826085BD85B5816085BD8091EE
:1015F0006E00816080936E00109281008091810066
:10160000826080938100809181008160809381005D
:10161000809180008160809380008091B10084601F
:101620008093B1008091B00081608093B000809180
:101630007A00846080937A0080917A00826080933F
:101640007A0080917A00816080937A0080917A009C
:10165000806880937A001092C10068E873E180E0AE
:1016600090E00E949801E091C901F091CA0182E0E6
:101670008083E091C501F091C6011082E091C7011D
:10168000F091C8018FEC80831092D101E091CD01DF
:10169000F091CE0186E08083E091CB01F091CC0106
:1016A000808180618083E091CB01F091CC018081C9
:1016B00088608083E091CB01F091CC0180818068CB
:1016C0008083E091CB01F091CC0180818F7D80837C
:1016D00060E08EE00E94370160E08FE00E943701F9
:1016E00060E083E10E94370162E082E00E943701FE
:1016F0006AE070E08BE992E00E94AB0369E070E081
:1017000088E992E00E94AB036AE570E08BE992E021
:101710000E94480370E060E088E992E00E9448037C
:101720006AE583E892E00E94D7026AE581E892E0E8
:101730000E94D7026AE58FE792E00E94D7026AE52D
:101740008DE792E00E94D702C0E0D0E00E944407FB
:101750002097E1F30E9434028823C1F30E94000025
:10176000F5CF052E97FB1EF400940E94C80B57FD81
:1017700007D00E94E30B07FC03D04EF40C94C80B77
:1017800050954095309521953F4F4F4F5F4F0895AD
:1017900090958095709561957F4F8F4F9F4F0895DD
:1017A0000E94050CA59F900DB49F900DA49F800DE5
:1017B000911D11240895B7FF0C94D00B0E94D00BFB
:1017C000821B930B0895A1E21A2EAA1BBB1BFD01DD
:1017D0000DC0AA1FBB1FEE1FFF1FA217B307E40710
:1017E000F50720F0A21BB30BE40BF50B661F771F68
:1017F000881F991F1A9469F7609570958095909548
:101800009B01AC01BD01CF010895A29FB001B39F20
:10181000C001A39F700D811D1124911DB29F700DF9
:10182000811D1124911D0895991B79E004C0991F11
:10183000961708F0961B881F7A95C9F7809508952A
:10184000EE0FFF1F0590F491E02D0994F894FFCF5F
:1018500001000000006A02CA01F701B7022802066F
:10186000021A020D0A004F62737461636C652044B2
:10187000657465637465642C2053746F707065645F
:10188000004C6566743A200052696768743A20001B
:101890004261636B696E6720557000417474656DB9
:1018A0007074696E6720746F207475726E20617237
:1018B0006F756E64005475726E20636F6D706C6529
:1018C000746564006D6F7665666F7277617264002F
:1018D00053797374656D2048616C7465642E00746F
:1018E00075726E205269676874007475726E206C30
:0418F00065667400B5
:107E0000112484B714BE81FFF0D085E080938100F7
:107E100082E08093C00088E18093C10086E0809377
:107E2000C20080E18093C4008EE0C9D0259A86E02C
:107E300020E33CEF91E0309385002093840096BBD3
:107E4000B09BFECF1D9AA8958150A9F7CC24DD24C4
:107E500088248394B5E0AB2EA1E19A2EF3E0BF2EE7
:107E6000A2D0813461F49FD0082FAFD0023811F036
:107E7000013811F484E001C083E08DD089C08234E0
:107E800011F484E103C0853419F485E0A6D080C0E4
:107E9000853579F488D0E82EFF2485D0082F10E0AE
:107EA000102F00270E291F29000F111F8ED06801E7
:107EB0006FC0863521F484E090D080E0DECF843638
:107EC00009F040C070D06FD0082F6DD080E0C81688
:107ED00080E7D80618F4F601B7BEE895C0E0D1E017
:107EE00062D089930C17E1F7F0E0CF16F0E7DF06D8
:107EF00018F0F601B7BEE89568D007B600FCFDCFD4
:107F0000A601A0E0B1E02C9130E011968C91119780
:107F100090E0982F8827822B932B1296FA010C0160
:107F200087BEE89511244E5F5F4FF1E0A038BF0790
:107F300051F7F601A7BEE89507B600FCFDCF97BE46
:107F4000E89526C08437B1F42ED02DD0F82E2BD052
:107F50003CD0F601EF2C8F010F5F1F4F84911BD097
:107F6000EA94F801C1F70894C11CD11CFA94CF0C13
:107F7000D11C0EC0853739F428D08EE10CD085E9AC
:107F80000AD08FE07ACF813511F488E018D01DD067
:107F900080E101D065CF982F8091C00085FFFCCF94
:107FA0009093C60008958091C00087FFFCCF809118
:107FB000C00084FD01C0A8958091C6000895E0E648
:107FC000F0E098E1908380830895EDDF803219F02E
:107FD00088E0F5DFFFCF84E1DECF1F93182FE3DFCA
:107FE0001150E9F7F2DF1F91089580E0E8DFEE27F6
:047FF000FF270994CA
:027FFE00040479
:00000001FF
